{
  "contractName": "BlockCertsOnchaining",
  "abi": [
    {
      "constant": true,
      "inputs": [
        {
          "name": "",
          "type": "uint256"
        }
      ],
      "name": "certs",
      "outputs": [
        {
          "name": "_merkleRootHash",
          "type": "uint256"
        },
        {
          "name": "_revoked",
          "type": "bool"
        }
      ],
      "payable": false,
      "stateMutability": "view",
      "type": "function"
    },
    {
      "inputs": [],
      "payable": false,
      "stateMutability": "nonpayable",
      "type": "constructor"
    },
    {
      "constant": false,
      "inputs": [
        {
          "name": "_merkleRootHash",
          "type": "uint256"
        }
      ],
      "name": "revokeCert",
      "outputs": [],
      "payable": false,
      "stateMutability": "nonpayable",
      "type": "function"
    },
    {
      "constant": false,
      "inputs": [
        {
          "name": "_merkleRootHash",
          "type": "uint256"
        },
        {
          "name": "_revokers",
          "type": "uint256[]"
        }
      ],
      "name": "issueCert",
      "outputs": [],
      "payable": false,
      "stateMutability": "nonpayable",
      "type": "function"
    }
  ],
  "bytecode": "0x608060405234801561001057600080fd5b50336000806101000a81548173ffffffffffffffffffffffffffffffffffffffff021916908373ffffffffffffffffffffffffffffffffffffffff16021790555061050b806100606000396000f3fe608060405234801561001057600080fd5b506004361061005e576000357c010000000000000000000000000000000000000000000000000000000090048063544b04d714610063578063646750d614610125578063dbcbc27214610172575b600080fd5b6101236004803603604081101561007957600080fd5b8101908080359060200190929190803590602001906401000000008111156100a057600080fd5b8201836020820111156100b257600080fd5b803590602001918460208302840111640100000000831117156100d457600080fd5b919080806020026020016040519081016040528093929190818152602001838360200280828437600081840152601f19601f8201169050808301925050505050505091929192905050506101a0565b005b6101516004803603602081101561013b57600080fd5b81019080803590602001909291905050506102e1565b60405180838152602001821515151581526020019250505060405180910390f35b61019e6004803603602081101561018857600080fd5b8101908080359060200190929190505050610312565b005b6000809054906101000a900473ffffffffffffffffffffffffffffffffffffffff1673ffffffffffffffffffffffffffffffffffffffff163373ffffffffffffffffffffffffffffffffffffffff1614610262576040517f08c379a000000000000000000000000000000000000000000000000000000000815260040180806020018281038252601d8152602001807f6f6e6c7920636f6e7472616374206f776e65722063616e20697373756500000081525060200191505060405180910390fd5b604051806060016040528083815260200160001515815260200182815250600160008481526020019081526020016000206000820151816000015560208201518160010160006101000a81548160ff02191690831515021790555060408201518160020190805190602001906102d992919061046d565b509050505050565b60016020528060005260406000206000915090508060000154908060010160009054906101000a900460ff16905082565b60016000828152602001908152602001600020604051806060016040529081600082015481526020016001820160009054906101000a900460ff16151515158152602001600282018054806020026020016040519081016040528092919081815260200182805480156103a457602002820191906000526020600020905b815481526020019060010190808311610390575b50505050508152505080604001516000815181106103be57fe5b602002602001015160051461043b576040517f08c379a000000000000000000000000000000000000000000000000000000000815260040180806020018281038252601e8152602001807f7265766f636174696f6e207265717569726573207065726d697373696f6e000081525060200191505060405180910390fd5b600180600084815260200190815260200160002060010160006101000a81548160ff0219169083151502179055505050565b8280548282559060005260206000209081019282156104a9579160200282015b828111156104a857825182559160200191906001019061048d565b5b5090506104b691906104ba565b5090565b6104dc91905b808211156104d85760008160009055506001016104c0565b5090565b9056fea165627a7a723058203415c27281c42e5458208e9b52ef96db1071229e0815c46f1693fae3d0e4e6f00029",
  "source": "pragma solidity >0.5.0;\n\ncontract BlockCertsOnchaining {\n\taddress internal owner;\n\n\tmodifier onlyOwner() {\n\t\trequire(\n\t\t    msg.sender == owner,\n\t\t    \"only contract owner can issue\"\n\t\t    );\n\t\t_;\n\t}\n\t\n\tmodifier revocationPermission (Certificate memory cert) {\n\t\t// require(msg.sender exists in cert._revokers);\n\t\trequire(\n\t\t    // closer to real life:\n\t\t    // msg.sender == cert.revokers[0],\n\t\t    5 == cert._revokers[0],\n\t\t    \"revocation requires permission\"\n\t\t    );\n\t\t_;\n\t}\n\t\n\tconstructor() public {\n\t\towner = msg.sender;\n\t}\n\t\n\tmapping(uint => Certificate) public certs;\n\t\n\tstruct Certificate {\n\t\tuint256 _merkleRootHash;\n\t\tbool _revoked;\n\t\t// address[] _revokers;\n\t\tuint256[] _revokers;\n\t}\n\n    // todo: check for permission\n\tfunction revokeCert(\n\t    uint256 _merkleRootHash\n\t    )\n\t    public revocationPermission(certs[_merkleRootHash])\n\t    {\n\t    certs[_merkleRootHash]._revoked = true;\n\t}\n\t\n\tfunction issueCert(uint256 _merkleRootHash, uint256[] memory _revokers) public onlyOwner {\n\t\tcerts[_merkleRootHash] = Certificate(_merkleRootHash, false, _revokers);\n\t}\n}\n",
  "sourcePath": "/home/marc/projects/pas/BlockCertsOnchainingEth/contracts/BlockCertsOnchaining.sol",
  "compiler": {
    "name": "solc",
    "version": "0.5.8+commit.23d335f2.Emscripten.clang"
  },
  "schemaVersion": "3.0.11",
  "updatedAt": "2019-11-21T15:18:16.300Z",
  "devdoc": {
    "methods": {}
  },
  "userdoc": {
    "methods": {}
  }
}