{
  "contractName": "BlockCertsOnchaining",
  "abi": [
    {
      "constant": true,
      "inputs": [
        {
          "name": "",
          "type": "uint256"
        }
      ],
      "name": "certs",
      "outputs": [
        {
          "name": "_merkleRootHash",
          "type": "uint256"
        },
        {
          "name": "_issuer",
          "type": "address"
        }
      ],
      "payable": false,
      "stateMutability": "view",
      "type": "function"
    },
    {
      "constant": true,
      "inputs": [],
      "name": "testVal",
      "outputs": [
        {
          "name": "",
          "type": "uint256"
        }
      ],
      "payable": false,
      "stateMutability": "view",
      "type": "function"
    },
    {
      "constant": true,
      "inputs": [],
      "name": "certCount",
      "outputs": [
        {
          "name": "",
          "type": "uint256"
        }
      ],
      "payable": false,
      "stateMutability": "view",
      "type": "function"
    },
    {
      "constant": false,
      "inputs": [
        {
          "name": "_merkleRootHash",
          "type": "uint256"
        }
      ],
      "name": "issueCert",
      "outputs": [],
      "payable": false,
      "stateMutability": "nonpayable",
      "type": "function"
    }
  ],
  "bytecode": "0x608060405260008055600c60015534801561001957600080fd5b5061026f806100296000396000f3fe608060405234801561001057600080fd5b5060043610610069576000357c010000000000000000000000000000000000000000000000000000000090048063646750d61461006e57806377001dd6146100e3578063b0d0a81c14610101578063d4e207a21461012f575b600080fd5b61009a6004803603602081101561008457600080fd5b810190808035906020019092919050505061014d565b604051808381526020018273ffffffffffffffffffffffffffffffffffffffff1673ffffffffffffffffffffffffffffffffffffffff1681526020019250505060405180910390f35b6100eb610191565b6040518082815260200191505060405180910390f35b61012d6004803603602081101561011757600080fd5b8101908080359060200190929190505050610197565b005b61013761023d565b6040518082815260200191505060405180910390f35b60026020528060005260406000206000915090508060000154908060010160009054906101000a900473ffffffffffffffffffffffffffffffffffffffff16905082565b60015481565b60405180604001604052808281526020013373ffffffffffffffffffffffffffffffffffffffff1681525060026000805481526020019081526020016000206000820151816000015560208201518160010160006101000a81548173ffffffffffffffffffffffffffffffffffffffff021916908373ffffffffffffffffffffffffffffffffffffffff1602179055509050506001600080828254019250508190555050565b6000548156fea165627a7a72305820b559823ade5ae796bcb1544b644c21c72ee3f36090cb99831d3491c43f5d60e40029",
  "source": "pragma solidity >0.5.0;\n\ncontract BlockCertsOnchaining {\n    uint256 public certCount = 0;\n    uint public testVal = 12;\n    \n    mapping(uint => Certificate) public certs;\n    \n    struct Certificate {\n        uint256 _merkleRootHash;\n        address _issuer;\n    }\n    \n    function issueCert(uint256 _merkleRootHash) public {\n        // check if msg.sender is allowed to issue\n        certs[certCount] = Certificate(_merkleRootHash, msg.sender);\n        certCount += 1;\n    }\n}\n",
  "sourcePath": "/home/marc/projects/pas/BlockCertsOnchainingEth/contracts/BlockCertsOnchaining.sol",
  "compiler": {
    "name": "solc",
    "version": "0.5.8+commit.23d335f2.Emscripten.clang"
  },
  "schemaVersion": "3.0.11",
  "updatedAt": "2019-11-19T18:56:27.868Z",
  "devdoc": {
    "methods": {}
  },
  "userdoc": {
    "methods": {}
  }
}