{
  "contractName": "BlockCertsOnchaining",
  "abi": [
    {
      "constant": true,
      "inputs": [
        {
          "name": "",
          "type": "uint256"
        }
      ],
      "name": "certs",
      "outputs": [
        {
          "name": "_merkleRootHash",
          "type": "uint256"
        },
        {
          "name": "_issuer",
          "type": "address"
        }
      ],
      "payable": false,
      "stateMutability": "view",
      "type": "function"
    },
    {
      "constant": true,
      "inputs": [],
      "name": "certCount",
      "outputs": [
        {
          "name": "",
          "type": "uint256"
        }
      ],
      "payable": false,
      "stateMutability": "view",
      "type": "function"
    },
    {
      "inputs": [],
      "payable": false,
      "stateMutability": "nonpayable",
      "type": "constructor"
    },
    {
      "constant": false,
      "inputs": [
        {
          "name": "_merkleRootHash",
          "type": "uint256"
        }
      ],
      "name": "issueCert",
      "outputs": [],
      "payable": false,
      "stateMutability": "nonpayable",
      "type": "function"
    }
  ],
  "bytecode": "0x60806040526000805534801561001457600080fd5b5033600160006101000a81548173ffffffffffffffffffffffffffffffffffffffff021916908373ffffffffffffffffffffffffffffffffffffffff16021790555061029a806100656000396000f3fe608060405234801561001057600080fd5b506004361061005e576000357c010000000000000000000000000000000000000000000000000000000090048063646750d614610063578063b0d0a81c146100d8578063d4e207a214610106575b600080fd5b61008f6004803603602081101561007957600080fd5b8101908080359060200190929190505050610124565b604051808381526020018273ffffffffffffffffffffffffffffffffffffffff1673ffffffffffffffffffffffffffffffffffffffff1681526020019250505060405180910390f35b610104600480360360208110156100ee57600080fd5b8101908080359060200190929190505050610168565b005b61010e610268565b6040518082815260200191505060405180910390f35b60026020528060005260406000206000915090508060000154908060010160009054906101000a900473ffffffffffffffffffffffffffffffffffffffff16905082565b600160009054906101000a900473ffffffffffffffffffffffffffffffffffffffff1673ffffffffffffffffffffffffffffffffffffffff163373ffffffffffffffffffffffffffffffffffffffff16146101c257600080fd5b60405180604001604052808281526020013373ffffffffffffffffffffffffffffffffffffffff1681525060026000805481526020019081526020016000206000820151816000015560208201518160010160006101000a81548173ffffffffffffffffffffffffffffffffffffffff021916908373ffffffffffffffffffffffffffffffffffffffff1602179055509050506001600080828254019250508190555050565b6000548156fea165627a7a72305820b7f4db06349a95b4c5c61efd3226cd28952cf9c573bd51c9c070c39db6ca36c90029",
  "source": "pragma solidity >0.5.0;\n\ncontract BlockCertsOnchaining {\n    uint256 public certCount = 0;\n\n    address internal owner;\n\n    constructor() public {\n        owner = msg.sender;\n    }\n\n    modifier onlyOwner() {\n        require(msg.sender == owner);\n        _;\n    }\n    \n    mapping(uint => Certificate) public certs;\n    \n    struct Certificate {\n        uint256 _merkleRootHash;\n        address _issuer;\n    }\n    \n    function issueCert(uint256 _merkleRootHash) public onlyOwner {\n        // check if msg.sender is allowed to issue\n        certs[certCount] = Certificate(_merkleRootHash, msg.sender);\n        certCount += 1;\n    }\n}\n",
  "sourcePath": "/home/marc/projects/pas/BlockCertsOnchainingEth/contracts/BlockCertsOnchaining.sol",
  "compiler": {
    "name": "solc",
    "version": "0.5.8+commit.23d335f2.Emscripten.clang"
  },
  "schemaVersion": "3.0.11",
  "updatedAt": "2019-11-20T15:22:09.651Z",
  "devdoc": {
    "methods": {}
  },
  "userdoc": {
    "methods": {}
  }
}