{
  "contractName": "BlockCertsOnchaining",
  "abi": [
    {
      "constant": true,
      "inputs": [
        {
          "name": "",
          "type": "uint256"
        }
      ],
      "name": "certs",
      "outputs": [
        {
          "name": "_merkleRootHash",
          "type": "uint256"
        },
        {
          "name": "_revoked",
          "type": "bool"
        }
      ],
      "payable": false,
      "stateMutability": "view",
      "type": "function"
    },
    {
      "inputs": [],
      "payable": false,
      "stateMutability": "nonpayable",
      "type": "constructor"
    },
    {
      "constant": false,
      "inputs": [
        {
          "name": "_merkleRootHash",
          "type": "uint256"
        }
      ],
      "name": "revokeCert",
      "outputs": [],
      "payable": false,
      "stateMutability": "nonpayable",
      "type": "function"
    },
    {
      "constant": false,
      "inputs": [
        {
          "name": "_merkleRootHash",
          "type": "uint256"
        }
      ],
      "name": "issueCert",
      "outputs": [],
      "payable": false,
      "stateMutability": "nonpayable",
      "type": "function"
    }
  ],
  "bytecode": "0x608060405234801561001057600080fd5b50336000806101000a81548173ffffffffffffffffffffffffffffffffffffffff021916908373ffffffffffffffffffffffffffffffffffffffff160217905550610379806100606000396000f3fe608060405234801561001057600080fd5b506004361061005e576000357c010000000000000000000000000000000000000000000000000000000090048063646750d614610063578063b0d0a81c146100b0578063dbcbc272146100de575b600080fd5b61008f6004803603602081101561007957600080fd5b810190808035906020019092919050505061010c565b60405180838152602001821515151581526020019250505060405180910390f35b6100dc600480360360208110156100c657600080fd5b810190808035906020019092919050505061013d565b005b61010a600480360360208110156100f457600080fd5b810190808035906020019092919050505061025a565b005b60016020528060005260406000206000915090508060000154908060010160009054906101000a900460ff16905082565b6000809054906101000a900473ffffffffffffffffffffffffffffffffffffffff1673ffffffffffffffffffffffffffffffffffffffff163373ffffffffffffffffffffffffffffffffffffffff16146101ff576040517f08c379a000000000000000000000000000000000000000000000000000000000815260040180806020018281038252601d8152602001807f6f6e6c7920636f6e7472616374206f776e65722063616e20697373756500000081525060200191505060405180910390fd5b604051806040016040528082815260200160001515815250600160008381526020019081526020016000206000820151816000015560208201518160010160006101000a81548160ff02191690831515021790555090505050565b6000809054906101000a900473ffffffffffffffffffffffffffffffffffffffff1673ffffffffffffffffffffffffffffffffffffffff163373ffffffffffffffffffffffffffffffffffffffff161461031c576040517f08c379a000000000000000000000000000000000000000000000000000000000815260040180806020018281038252601d8152602001807f6f6e6c7920636f6e7472616374206f776e65722063616e20697373756500000081525060200191505060405180910390fd5b600180600083815260200190815260200160002060010160006101000a81548160ff0219169083151502179055505056fea165627a7a7230582065b9b66d665b58bea532f7670db1dd19edf39f18c844fc47c1134d2a1f9b16170029",
  "source": "pragma solidity >0.5.0;\n\ncontract BlockCertsOnchaining {\n\taddress internal owner;\n\n\tmodifier onlyOwner() {\n\t\trequire(\n\t\t    msg.sender == owner,\n\t\t    \"only contract owner can issue\"\n\t\t    );\n\t\t_;\n\t}\n\t\n\tconstructor() public {\n\t\towner = msg.sender;\n\t}\n\t\n\tmapping(uint256 => Certificate) public certs;\n\t\n\tstruct Certificate {\n\t\tuint256 _merkleRootHash;\n\t\tbool _revoked;\n\t}\n\n    // todo: check for permission\n\tfunction revokeCert(uint256 _merkleRootHash) public onlyOwner {\n\t    certs[_merkleRootHash]._revoked = true;\n\t}\n\t\n\tfunction issueCert(uint256 _merkleRootHash) public onlyOwner {\n\t\tcerts[_merkleRootHash] = Certificate(_merkleRootHash, false);\n\t}\n}\n",
  "sourcePath": "/home/marc/projects/pas/BlockCertsOnchainingEth/contracts/BlockCertsOnchaining.sol",
  "compiler": {
    "name": "solc",
    "version": "0.5.8+commit.23d335f2.Emscripten.clang"
  },
  "schemaVersion": "3.0.11",
  "updatedAt": "2019-11-21T16:19:57.224Z",
  "devdoc": {
    "methods": {}
  },
  "userdoc": {
    "methods": {}
  }
}